:1000000072C000009FC000009DC000009BC00000A7
:1000100099C0000097C0000095C0000093C0000088
:1000200091C000008FC000008DC000008BC0000098
:1000300089C0000087C0000085C0000083C00000A8
:1000400081C000007FC000007DC000007BC00000B8
:1000500079C0000077C0000075C0000069C20000D0
:1000600071C00000D8C20000ADC200006BC000002B
:1000700069C0000067C0000065C0000063C00000E8
:1000800061C000005FC000005DC000005BC00000F8
:1000900059C0000057C0000055C0000053C0000008
:1000A00051C000004FC000004DC000004BC0000018
:1000B00049C0000047C0000045C0000043C0000028
:1000C00041C000003FC000003DC000003BC0000038
:1000D00039C0000037C0000035C0000033C0000048
:1000E00031C00000690511241FBECFEFD1E2DEBF91
:1000F000CDBF00E00CBF12E0A0E0B2E0ECE5F1E122
:1001000000E00BBF02C007900D92AE3CB107D9F7DB
:1001100023E0AEECB2E001C01D92A937B207E1F7CF
:1001200010E0C3E7D0E000E005C021970109802F6F
:10013000FE01F5D5C237D10780E00807B1F7A1D29B
:100140000C94AC085DCF3FB7F8948091D4029091A5
:10015000D502A091D602B091D70226B5A89B05C0C2
:100160002F3F19F00196A11DB11D3FBFBA2FA92F36
:10017000982F8827820F911DA11DB11DBC01CD01B3
:1001800042E0660F771F881F991F4A95D1F708959F
:100190008F929F92AF92BF92CF92DF92EF92FF9297
:1001A0006B017C01D0DF4B015C01C114D104E1047F
:1001B000F104E9F0C8DFDC01CB0188199909AA092B
:1001C000BB09883E9340A105B10578F321E0C21A2E
:1001D000D108E108F10888EE880E83E0981EA11C82
:1001E000B11CC114D104E104F10421F7DECFFF906A
:1001F000EF90DF90CF90BF90AF909F908F90089539
:10020000CF92DF92EF92FF920F931F93CF93DF93E2
:100210006C017A018B01C0E0D0E0CE15DF0581F0E2
:10022000D8016D918D01D601ED91FC910190F08185
:10023000E02DC6011995892B11F02196EECF7E0194
:10024000C701DF91CF911F910F91FF90EF90DF9049
:10025000CF900895089580E090E00895FC01538DBB
:10026000448D252F30E0842F90E0821B930B541790
:1002700010F0CF96089501970895FC01918D828D1D
:10028000981761F0828DDF01A80FB11D5D968C91EA
:10029000928D9F5F9F73928F90E008958FEF9FEFF5
:1002A0000895FC01918D828D981731F0828DE80FB1
:1002B000F11D858D90E008958FEF9FEF0895FC016B
:1002C000918D228D892F90E0805C9F4F821B910938
:1002D0008F739927089588ED92E0F1DF21E0892B53
:1002E00009F420E0822F0895FC01848DDF01A80F1E
:1002F000B11DA35ABF4F2C91848D90E001968F734E
:100300009927848FA689B7892C93A089B1898C916C
:10031000837080648C93938D848D981306C00288BB
:10032000F389E02D80818F7D80830895EF92FF9285
:100330000F931F93CF93DF93EC0181E0888F9B8D08
:100340008C8D981305C0E889F989808185FD25C0C9
:10035000F62E0B8D10E00F5F1F4F0F731127E02E4D
:100360008C8DE8120BC00FB607FCFACFE889F9892B
:10037000808185FFF5CFCE01B7DFF2CF8B8DFE01F7
:10038000E80FF11DE35AFF4FF0829FB7F8940B8FEF
:10039000EA89FB89808180620AC09FB7F894EE8960
:1003A000FF896083E889F989808183708064808314
:1003B0009FBF81E090E0DF91CF911F910F91FF905F
:1003C000EF900895682F88ED92E0B0CFCF93DF9340
:1003D000EC01888D8823C1F0EA89FB89808185FD45
:1003E00005C0A889B9898C9186FD0EC00FB607FC9F
:1003F000F5CF808185FFF2CFA889B9898C9185FFDF
:10040000EDCFCE0171DFE8CFDF91CF91089580E08D
:1004100090E0892B19F05FDF811125C080E090E02A
:10042000892B41F080E090E0892B21F00E940000B0
:1004300081111CC080E090E0892B41F080E090E0C9
:10044000892B21F00E940000811113C080E090E010
:10045000892BA1F080E090E0892B81F00E940000C0
:1004600081110AC008950E940000D8CF0E940000A8
:10047000E1CF0E940000EACF0C940000089500979D
:1004800061F0FC0101900020E9F73197AF01481BB2
:10049000590BBC0188ED92E0B3CE80E090E0089566
:1004A000CF93DF93ECDFEC018CE192E0E8DF8C0F7F
:1004B0009D1FDF91CF910895E2CFCF92DF92EF920F
:1004C000FF920F931F93CF93DF93CDB7DEB7A19722
:1004D0000FB6F894DEBF0FBECDBF9B01AC0119A2D1
:1004E0008E010F5D1F4F8AE0C82ED12CE12CF12C1C
:1004F000CA01B901A7019601E1D3605DF8016293D9
:100500008F01211531054105510591F7CF01B7DF65
:10051000A1960FB6F894DEBF0FBECDBFDF91CF918D
:100520001F910F91FF90EF90DF90CF90089500D62C
:100530001F920F920FB60F9211242F933F938F9318
:100540009F93AF93BF938091D0029091D102A091DD
:10055000D202B091D3023091CF0223E0230F2D3786
:1005600020F40196A11DB11D05C026E8230F0296B7
:10057000A11DB11D2093CF028093D0029093D10290
:10058000A093D202B093D3028091D4029091D5026D
:10059000A091D602B091D7020196A11DB11D809302
:1005A000D4029093D502A093D602B093D702BF9104
:1005B000AF919F918F913F912F910F900FBE0F9010
:1005C0001F9018951F920F920FB60F9211240BB621
:1005D0000F922F933F934F935F936F937F938F93DC
:1005E0009F93AF93BF93EF93FF9388ED92E07CDEF0
:1005F000FF91EF91BF91AF919F918F917F916F91FB
:100600005F914F913F912F910F900BBE0F900FBEB6
:100610000F901F9018951F920F920FB60F921124F2
:100620000BB60F922F938F939F93EF93FF93E091CD
:10063000E802F091E9028081E091EE02F091EF0290
:1006400082FD12C090818091F1028F5F8F732091A3
:10065000F202821751F0E091F102F0E0E852FD4F12
:10066000958F8093F10201C08081FF91EF919F915E
:100670008F912F910F900BBE0F900FBE0F901F9078
:100680001895CF93DF93CDB7DEB7C456D1090FB617
:10069000F894DEBF0FBECDBF789484B5826084BD70
:1006A00084B5816084BD85B5826085BD85B5816076
:1006B00085BD80916E00816080936E0010928100F4
:1006C00080918100826080938100809181008160AF
:1006D0008093810080918000816080938000809170
:1006E000B10084608093B1008091B00081608093FC
:1006F000B000809191008260809391008091910080
:10070000816080939100809190008160809390003F
:100710008091A10082608093A1008091A1008160FE
:100720008093A1008091A00081608093A0008091BF
:100730002101826080932101809121018160809359
:1007400021018091200181608093200180917A00B5
:10075000846080937A0080917A00826080937A002E
:1007600080917A00816080937A0080917A0080681D
:1007700080937A001092C100E091E802F091E902C2
:1007800082E08083E091E402F091E5021082E09142
:10079000E602F091E70283E380831092F002E09199
:1007A000EC02F091ED0286E08083E091EA02F091A4
:1007B000EB02808180618083E091EA02F091EB029C
:1007C000808188608083E091EA02F091EB02808171
:1007D00080688083E091EA02F091EB0280818F7D56
:1007E00080838E010C5A1F4FCE01C696A3969FAFF1
:1007F0008EAFA397DE01DC96A596BFAFAEAFA597EF
:1008000083E3E1E9F2E0DE01119601900D928A9511
:10081000E1F789E0E4ECF2E0D80101900D928A95CD
:10082000E1F784E3CFDD8BA1CDDD87E692E044DE06
:100830008DA1C8DD8EA1C6DD87E692E03DDE88A5EC
:10084000C1DD89A5BFDD87E692E036DE8BA5BADD86
:100850008CA5B8DD87E692E02FDE8FE192E020DE06
:100860008BA5F8018083ACA4A182B8A4B282C9A4EC
:10087000C382DDA0D482EEA0E582FAA0F6829BA01E
:100880009782A0DD8A2D9EDD87E692E015DE8B2D16
:1008900099DD8C2D97DD87E692E00EDE8D2D92DDC1
:1008A0008E2D90DD87E692E007DE8F2D8BDD892D82
:1008B00089DD87E692E000DE89E292E0F1DDF80171
:1008C00001900020E9F731977F01E01AF10AB701A2
:1008D0006F5F7F4F80E090E04BD36C01009729F071
:1008E000DC011C92B80131D402C0E12CF12C20E0D3
:1008F00030E0E216F306E1F12E153F0518F4C114BD
:10090000D10429F41092CE02EEECF2E003C0F6011D
:10091000E20FF31F808190ED980F9A3028F4082E93
:10092000000C990BC09712C09FE9980F963030F4D5
:10093000082E000C990B8755910908C09FEB980F62
:10094000963098F4082E000C990BC79744E0440C9D
:10095000551C661C771C4A95D1F7092E000CAA0B72
:10096000BB0B480E591E6A1E7B1E2F5F3F4FC1CF27
:10097000C60175D2C301B201A0DD84E392E090DD2F
:100980001DD128E833E140E050E06CD14B015C011F
:10099000840C951CA61CB71CC501B4018EDD8BE42C
:1009A00092E07EDD68EE73E080E090E0F1DB1E0116
:1009B000BDE52B0E311C6101E12CF12CD501C401E8
:1009C0000E2C04C0B695A795979587950A94D2F7F3
:1009D000F60181936F0164E670E080E090E0D8DB7F
:1009E000F8E0EF0EF11C80E2E816F10439F71DAAD9
:1009F0001CAAA396AEADBFADA397EEE11D92EA95FA
:100A0000E9F7FE01F4967F01D1018D911D01982F28
:100A100092959F708F709A3010F4905D01C0995C30
:100A200090838A3010F4805D01C0895C81833296A6
:100A3000A5968EAD9FADA5978E179F0729F71CAE83
:100A40008CE592E039DDC7012BDD68EE73E080E0D4
:100A500090E09EDBCE0101962FDD89E692E020DD5D
:100A60008CA98AA39DA99BA39EA99DA39FA99EA390
:100A700098AD98A799AD99A79AAD9BA79BAD9CA758
:100A8000A1DC8BA19FDC87E692E016DD8DA19ADCCC
:100A90008EA198DC87E692E00FDD88A593DC89A51E
:100AA00091DC87E692E008DD8BA58CDC8CA58ADCE6
:100AB00087E692E001DD87E792E0F2DCCE01019665
:100AC000FBDC8EE792E0ECDC87E692E0E9DC9FDC81
:100AD00097CEE8EDF2E01382128288EE93E0A0E078
:100AE000B0E084839583A683B7838EE092E0918300
:100AF000808385EC90E09587848784EC90E09787ED
:100B0000868780EC90E0918B808B81EC90E0938BDA
:100B1000828B82EC90E0958B848B86EC90E0978BB7
:100B2000868B118E128E138E148E08958F929F9243
:100B3000AF92BF92CF92DF92EF92FF92CF93DF936B
:100B4000EC01688179818A819B816115710581053C
:100B5000910521F464E279ED8BE597E02DE133EF27
:100B600041E050E07FD049015A019B01AC01A7EA66
:100B7000B1E494D06B017C01ACEEB4EFA50194011B
:100B800099D0DC01CB018C0D9D1DAE1DBF1DB7FFA3
:100B900003C00197A109B04888839983AA83BB83C6
:100BA000BC01CD019F77DF91CF91FF90EF90DF9057
:100BB000CF90BF90AF909F908F9008958F929F920B
:100BC000AF92BF92CF92DF92EF92FF9260910002BC
:100BD00070910102809102029091030261157105EA
:100BE0008105910521F464E279ED8BE597E02DE133
:100BF00033EF41E050E036D049015A019B01AC018E
:100C0000A7EAB1E44BD06B017C01ACEEB4EFA501D7
:100C1000940150D0DC01CB018C0D9D1DAE1DBF1D7C
:100C2000B7FF03C00197A109B048809300029093D9
:100C30000102A0930202B0930302BC01CD019F7791
:100C4000FF90EF90DF90CF90BF90AF909F908F90EC
:100C500008956093000270930102809302029093C2
:100C600003020895052E97FB16F400940FD057FD4C
:100C700005D024D007FC02D046F408C0509540951A
:100C8000309521953F4F4F4F5F4F08959095809538
:100C9000709561957F4F8F4F9F4F089531D0A59FDD
:100CA000900DB49F900DA49F800D911D1124089567
:100CB000B7FFF4CFF3DF821B930B0895A1E21A2E46
:100CC000AA1BBB1BFD010DC0AA1FBB1FEE1FFF1FF0
:100CD000A217B307E407F50720F0A21BB30BE40B40
:100CE000F50B661F771F881F991F1A9469F7609587
:100CF0007095809590959B01AC01BD01CF01089541
:100D0000A29FB001B39FC001A39F700D811D11244C
:100D1000911DB29F700D811D1124911D0895EE0F3C
:100D2000FF1F881F8BBF0790F691E02D19940F933A
:100D30001F93CF93DF938230910510F482E090E00F
:100D4000E0917703F091780320E030E0A0E0B0E09C
:100D5000309719F140815181028113814817590759
:100D6000C8F08417950769F4109731F012960C9328
:100D7000129713961C9327C0009377031093780360
:100D800022C02115310519F04217530718F49A01B2
:100D9000BD01EF01DF01F801DBCF21153105F9F0CD
:100DA000281B390B2430310580F48A819B81611521
:100DB000710521F0FB019383828304C09093780333
:100DC00080937703FE01329644C0FE01E20FF31FC9
:100DD0008193919322503109398328833AC020911D
:100DE000750330917603232B41F420910602309154
:100DF000070230937603209375032091040230910B
:100E000005022115310541F42DB73EB74091080286
:100E100050910902241B350BE0917503F091760384
:100E2000E217F307A0F42E1B3F0B2817390778F0C1
:100E3000AC014E5F5F4F2417350748F04E0F5F1F20
:100E400050937603409375038193919302C0E0E041
:100E5000F0E0CF01DF91CF911F910F910895CF93D3
:100E6000DF93009709F481C0FC013297138212824C
:100E7000A0917703B0917803109781F4208131819C
:100E8000820F931F2091750330917603281739073D
:100E900051F5F0937603E093750367C0ED0120E010
:100EA00030E0CE17DF0740F44A815B819E01411597
:100EB0005105F1F0EA01F5CFD383C283408151811E
:100EC000840F951FC817D90759F488819981840F19
:100ED000951F0296918380838A819B81938382836D
:100EE0002115310529F4F0937803E09377033DC091
:100EF000E901FB83EA8349915991C40FD51FEC178F
:100F0000FD0761F480819181840F951F0296E901AC
:100F100099838883828193819B838A83E0E0F0E0D8
:100F200012968D919C911397009719F0FD01DC01A9
:100F3000F7CF8D919C9111979D012E5F3F4F820FAE
:100F4000931F20917503309176032817390769F4B0
:100F5000309729F4109278031092770302C013821D
:100F60001282B0937603A0937503DF91CF91089519
:100F70006F927F928F929F92AF92BF92CF92DF92A9
:100F8000EF92FF920F931F93CF93DF93009781F41B
:100F9000CB01DF91CF911F910F91FF90EF90DF90E8
:100FA000CF90BF90AF909F908F907F906F90BFCE6B
:100FB000FC01E60FF71F9C0122503109E217F307ED
:100FC00008F4A5C0EC01D9010D911C9111970617E9
:100FD0001707A8F00530110508F497C0C801049759
:100FE0008617970708F491C002501109061B170BCA
:100FF000019311936D937C93CF0131DF86C05B0128
:10100000A01AB10A4C01800E911EA0917703B091F5
:101010007803612C712CE12CF12C109709F446C057
:101020008D919C911197A815B905B1F56C0142E01D
:10103000C40ED11CCA14DB0478F14C018A189B0839
:10104000640142E0C40ED11C1296BC901297139614
:10105000AC91B5E0CB16D10440F0B282A38391826B
:101060008082D9016D937C9309C00E5F1F4F800F62
:10107000911FF90191838083EB2DFA2FE114F10484
:1010800031F0D7011396FC93EE9312973EC0F09384
:101090007803E093770339C06816790608F43C01B9
:1010A0007D0112960D90BC91A02DB7CF8091750354
:1010B0009091760388169906E1F466167706C8F4CF
:1010C0008091040290910502009741F48DB79EB77C
:1010D0004091080250910902841B950BE817F9070B
:1010E000B0F4F0937603E0937503F90171836083A4
:1010F0000CC0CB011CDE7C01009749F0A801BE01A9
:101100001BD0CE01ACDEC70104C0CE0102C080E01E
:1011100090E0DF91CF911F910F91FF90EF90DF90C2
:10112000CF90BF90AF909F908F907F906F900895D9
:1011300081E090E0F89410C0FB01DC0102C0019056
:101140000D9241505040D8F70895FB01DC01019009
:0C1150000D920020E1F70895F894FFCF05
:10115C0001000000000079038000000000009601EF
:10116C0000012E01E6015F013D0151010D0A004C09
:10117C005342202D20737472004D5342202D207346
:10118C00747231002041637475616C2033322042DB
:10119C00697420446563696D616C002052616E64F2
:1011AC006F6D697A65642072657432004E657720C4
:1011BC00436F6D6D616E642000204F726967696EBC
:1011CC00616C20484558004C534220233200204D7E
:1011DC006F6469666965642046756C6C2048455877
:1011EC000030312C30302030322035352030342056
:1011FC003033203030203030203030203030203030
:10120C0030203438204538203031203030204538DB
:0E121C002030330030303030303030300000C1
:00000001FF
